{
  "_format": "hh-sol-artifact-1",
  "contractName": "Dormy",
  "sourceName": "contracts/dormy/Dormy.sol",
  "abi": [
    {
      "inputs": [
        {
          "internalType": "address",
          "name": "propertyManagerAddress",
          "type": "address"
        },
        {
          "internalType": "address",
          "name": "_accessControlAddress",
          "type": "address"
        },
        {
          "internalType": "address",
          "name": "_uToken",
          "type": "address"
        }
      ],
      "stateMutability": "nonpayable",
      "type": "constructor"
    },
    {
      "anonymous": false,
      "inputs": [
        {
          "indexed": true,
          "internalType": "address",
          "name": "_owner",
          "type": "address"
        },
        {
          "indexed": true,
          "internalType": "address",
          "name": "_approved",
          "type": "address"
        },
        {
          "indexed": true,
          "internalType": "uint256",
          "name": "_tokenId",
          "type": "uint256"
        }
      ],
      "name": "Approval",
      "type": "event"
    },
    {
      "anonymous": false,
      "inputs": [
        {
          "indexed": true,
          "internalType": "address",
          "name": "_owner",
          "type": "address"
        },
        {
          "indexed": true,
          "internalType": "address",
          "name": "_operator",
          "type": "address"
        },
        {
          "indexed": false,
          "internalType": "bool",
          "name": "_approved",
          "type": "bool"
        }
      ],
      "name": "ApprovalForAll",
      "type": "event"
    },
    {
      "anonymous": false,
      "inputs": [
        {
          "indexed": true,
          "internalType": "uint256",
          "name": "_tokenId",
          "type": "uint256"
        },
        {
          "indexed": true,
          "internalType": "address",
          "name": "_operator",
          "type": "address"
        },
        {
          "indexed": false,
          "internalType": "uint256",
          "name": "_value",
          "type": "uint256"
        }
      ],
      "name": "ApprovalValue",
      "type": "event"
    },
    {
      "anonymous": false,
      "inputs": [
        {
          "indexed": true,
          "internalType": "address",
          "name": "to",
          "type": "address"
        },
        {
          "indexed": true,
          "internalType": "uint256",
          "name": "slot",
          "type": "uint256"
        },
        {
          "indexed": false,
          "internalType": "uint256",
          "name": "amount",
          "type": "uint256"
        }
      ],
      "name": "Mint",
      "type": "event"
    },
    {
      "anonymous": false,
      "inputs": [
        {
          "indexed": true,
          "internalType": "address",
          "name": "metadataDescriptor",
          "type": "address"
        }
      ],
      "name": "SetMetadataDescriptor",
      "type": "event"
    },
    {
      "anonymous": false,
      "inputs": [
        {
          "indexed": true,
          "internalType": "uint256",
          "name": "_tokenId",
          "type": "uint256"
        },
        {
          "indexed": true,
          "internalType": "uint256",
          "name": "_oldSlot",
          "type": "uint256"
        },
        {
          "indexed": true,
          "internalType": "uint256",
          "name": "_newSlot",
          "type": "uint256"
        }
      ],
      "name": "SlotChanged",
      "type": "event"
    },
    {
      "anonymous": false,
      "inputs": [
        {
          "indexed": true,
          "internalType": "address",
          "name": "_from",
          "type": "address"
        },
        {
          "indexed": true,
          "internalType": "address",
          "name": "_to",
          "type": "address"
        },
        {
          "indexed": true,
          "internalType": "uint256",
          "name": "_tokenId",
          "type": "uint256"
        }
      ],
      "name": "Transfer",
      "type": "event"
    },
    {
      "anonymous": false,
      "inputs": [
        {
          "indexed": true,
          "internalType": "uint256",
          "name": "_fromTokenId",
          "type": "uint256"
        },
        {
          "indexed": true,
          "internalType": "uint256",
          "name": "_toTokenId",
          "type": "uint256"
        },
        {
          "indexed": false,
          "internalType": "uint256",
          "name": "_value",
          "type": "uint256"
        }
      ],
      "name": "TransferValue",
      "type": "event"
    },
    {
      "inputs": [],
      "name": "accessControl",
      "outputs": [
        {
          "internalType": "contract IAccessControl",
          "name": "",
          "type": "address"
        }
      ],
      "stateMutability": "view",
      "type": "function"
    },
    {
      "inputs": [
        {
          "internalType": "uint256",
          "name": "tokenId_",
          "type": "uint256"
        },
        {
          "internalType": "address",
          "name": "operator_",
          "type": "address"
        }
      ],
      "name": "allowance",
      "outputs": [
        {
          "internalType": "uint256",
          "name": "",
          "type": "uint256"
        }
      ],
      "stateMutability": "view",
      "type": "function"
    },
    {
      "inputs": [
        {
          "internalType": "address",
          "name": "to_",
          "type": "address"
        },
        {
          "internalType": "uint256",
          "name": "tokenId_",
          "type": "uint256"
        }
      ],
      "name": "approve",
      "outputs": [],
      "stateMutability": "payable",
      "type": "function"
    },
    {
      "inputs": [
        {
          "internalType": "uint256",
          "name": "tokenId_",
          "type": "uint256"
        },
        {
          "internalType": "address",
          "name": "to_",
          "type": "address"
        },
        {
          "internalType": "uint256",
          "name": "value_",
          "type": "uint256"
        }
      ],
      "name": "approve",
      "outputs": [],
      "stateMutability": "payable",
      "type": "function"
    },
    {
      "inputs": [
        {
          "internalType": "address",
          "name": "owner_",
          "type": "address"
        }
      ],
      "name": "balanceOf",
      "outputs": [
        {
          "internalType": "uint256",
          "name": "balance",
          "type": "uint256"
        }
      ],
      "stateMutability": "view",
      "type": "function"
    },
    {
      "inputs": [
        {
          "internalType": "uint256",
          "name": "tokenId_",
          "type": "uint256"
        }
      ],
      "name": "balanceOf",
      "outputs": [
        {
          "internalType": "uint256",
          "name": "",
          "type": "uint256"
        }
      ],
      "stateMutability": "view",
      "type": "function"
    },
    {
      "inputs": [],
      "name": "contractURI",
      "outputs": [
        {
          "internalType": "string",
          "name": "",
          "type": "string"
        }
      ],
      "stateMutability": "view",
      "type": "function"
    },
    {
      "inputs": [
        {
          "internalType": "uint256",
          "name": "tokenId_",
          "type": "uint256"
        }
      ],
      "name": "getApproved",
      "outputs": [
        {
          "internalType": "address",
          "name": "",
          "type": "address"
        }
      ],
      "stateMutability": "view",
      "type": "function"
    },
    {
      "inputs": [
        {
          "internalType": "uint256",
          "name": "tokenId_",
          "type": "uint256"
        }
      ],
      "name": "getSlotInfo",
      "outputs": [
        {
          "internalType": "string",
          "name": "",
          "type": "string"
        }
      ],
      "stateMutability": "view",
      "type": "function"
    },
    {
      "inputs": [
        {
          "internalType": "address",
          "name": "owner_",
          "type": "address"
        },
        {
          "internalType": "address",
          "name": "operator_",
          "type": "address"
        }
      ],
      "name": "isApprovedForAll",
      "outputs": [
        {
          "internalType": "bool",
          "name": "",
          "type": "bool"
        }
      ],
      "stateMutability": "view",
      "type": "function"
    },
    {
      "inputs": [],
      "name": "metadataDescriptor",
      "outputs": [
        {
          "internalType": "contract IERC3525MetadataDescriptor",
          "name": "",
          "type": "address"
        }
      ],
      "stateMutability": "view",
      "type": "function"
    },
    {
      "inputs": [
        {
          "internalType": "address",
          "name": "to_",
          "type": "address"
        },
        {
          "internalType": "uint256",
          "name": "slot_",
          "type": "uint256"
        },
        {
          "internalType": "uint256",
          "name": "amount_",
          "type": "uint256"
        }
      ],
      "name": "mint",
      "outputs": [],
      "stateMutability": "nonpayable",
      "type": "function"
    },
    {
      "inputs": [],
      "name": "name",
      "outputs": [
        {
          "internalType": "string",
          "name": "",
          "type": "string"
        }
      ],
      "stateMutability": "view",
      "type": "function"
    },
    {
      "inputs": [
        {
          "internalType": "uint256",
          "name": "tokenId_",
          "type": "uint256"
        }
      ],
      "name": "ownerOf",
      "outputs": [
        {
          "internalType": "address",
          "name": "owner_",
          "type": "address"
        }
      ],
      "stateMutability": "view",
      "type": "function"
    },
    {
      "inputs": [],
      "name": "propertyManager",
      "outputs": [
        {
          "internalType": "contract IPropertyManager",
          "name": "",
          "type": "address"
        }
      ],
      "stateMutability": "view",
      "type": "function"
    },
    {
      "inputs": [
        {
          "internalType": "address",
          "name": "from_",
          "type": "address"
        },
        {
          "internalType": "address",
          "name": "to_",
          "type": "address"
        },
        {
          "internalType": "uint256",
          "name": "tokenId_",
          "type": "uint256"
        }
      ],
      "name": "safeTransferFrom",
      "outputs": [],
      "stateMutability": "payable",
      "type": "function"
    },
    {
      "inputs": [
        {
          "internalType": "address",
          "name": "from_",
          "type": "address"
        },
        {
          "internalType": "address",
          "name": "to_",
          "type": "address"
        },
        {
          "internalType": "uint256",
          "name": "tokenId_",
          "type": "uint256"
        },
        {
          "internalType": "bytes",
          "name": "data_",
          "type": "bytes"
        }
      ],
      "name": "safeTransferFrom",
      "outputs": [],
      "stateMutability": "payable",
      "type": "function"
    },
    {
      "inputs": [
        {
          "internalType": "address",
          "name": "operator_",
          "type": "address"
        },
        {
          "internalType": "bool",
          "name": "approved_",
          "type": "bool"
        }
      ],
      "name": "setApprovalForAll",
      "outputs": [],
      "stateMutability": "nonpayable",
      "type": "function"
    },
    {
      "inputs": [
        {
          "internalType": "uint256",
          "name": "index_",
          "type": "uint256"
        }
      ],
      "name": "slotByIndex",
      "outputs": [
        {
          "internalType": "uint256",
          "name": "",
          "type": "uint256"
        }
      ],
      "stateMutability": "view",
      "type": "function"
    },
    {
      "inputs": [],
      "name": "slotCount",
      "outputs": [
        {
          "internalType": "uint256",
          "name": "",
          "type": "uint256"
        }
      ],
      "stateMutability": "view",
      "type": "function"
    },
    {
      "inputs": [
        {
          "internalType": "uint256",
          "name": "tokenId_",
          "type": "uint256"
        }
      ],
      "name": "slotOf",
      "outputs": [
        {
          "internalType": "uint256",
          "name": "",
          "type": "uint256"
        }
      ],
      "stateMutability": "view",
      "type": "function"
    },
    {
      "inputs": [
        {
          "internalType": "uint256",
          "name": "slot_",
          "type": "uint256"
        }
      ],
      "name": "slotURI",
      "outputs": [
        {
          "internalType": "string",
          "name": "",
          "type": "string"
        }
      ],
      "stateMutability": "view",
      "type": "function"
    },
    {
      "inputs": [
        {
          "internalType": "bytes4",
          "name": "interfaceId",
          "type": "bytes4"
        }
      ],
      "name": "supportsInterface",
      "outputs": [
        {
          "internalType": "bool",
          "name": "",
          "type": "bool"
        }
      ],
      "stateMutability": "view",
      "type": "function"
    },
    {
      "inputs": [],
      "name": "symbol",
      "outputs": [
        {
          "internalType": "string",
          "name": "",
          "type": "string"
        }
      ],
      "stateMutability": "view",
      "type": "function"
    },
    {
      "inputs": [
        {
          "internalType": "uint256",
          "name": "index_",
          "type": "uint256"
        }
      ],
      "name": "tokenByIndex",
      "outputs": [
        {
          "internalType": "uint256",
          "name": "",
          "type": "uint256"
        }
      ],
      "stateMutability": "view",
      "type": "function"
    },
    {
      "inputs": [
        {
          "internalType": "uint256",
          "name": "slot_",
          "type": "uint256"
        },
        {
          "internalType": "uint256",
          "name": "index_",
          "type": "uint256"
        }
      ],
      "name": "tokenInSlotByIndex",
      "outputs": [
        {
          "internalType": "uint256",
          "name": "",
          "type": "uint256"
        }
      ],
      "stateMutability": "view",
      "type": "function"
    },
    {
      "inputs": [
        {
          "internalType": "address",
          "name": "owner_",
          "type": "address"
        },
        {
          "internalType": "uint256",
          "name": "index_",
          "type": "uint256"
        }
      ],
      "name": "tokenOfOwnerByIndex",
      "outputs": [
        {
          "internalType": "uint256",
          "name": "",
          "type": "uint256"
        }
      ],
      "stateMutability": "view",
      "type": "function"
    },
    {
      "inputs": [
        {
          "internalType": "uint256",
          "name": "slot_",
          "type": "uint256"
        }
      ],
      "name": "tokenSupplyInSlot",
      "outputs": [
        {
          "internalType": "uint256",
          "name": "",
          "type": "uint256"
        }
      ],
      "stateMutability": "view",
      "type": "function"
    },
    {
      "inputs": [
        {
          "internalType": "uint256",
          "name": "tokenId_",
          "type": "uint256"
        }
      ],
      "name": "tokenURI",
      "outputs": [
        {
          "internalType": "string",
          "name": "",
          "type": "string"
        }
      ],
      "stateMutability": "view",
      "type": "function"
    },
    {
      "inputs": [],
      "name": "totalSupply",
      "outputs": [
        {
          "internalType": "uint256",
          "name": "",
          "type": "uint256"
        }
      ],
      "stateMutability": "view",
      "type": "function"
    },
    {
      "inputs": [
        {
          "internalType": "uint256",
          "name": "fromTokenId_",
          "type": "uint256"
        },
        {
          "internalType": "address",
          "name": "to_",
          "type": "address"
        },
        {
          "internalType": "uint256",
          "name": "value_",
          "type": "uint256"
        }
      ],
      "name": "transferFrom",
      "outputs": [
        {
          "internalType": "uint256",
          "name": "newTokenId",
          "type": "uint256"
        }
      ],
      "stateMutability": "payable",
      "type": "function"
    },
    {
      "inputs": [
        {
          "internalType": "address",
          "name": "from_",
          "type": "address"
        },
        {
          "internalType": "address",
          "name": "to_",
          "type": "address"
        },
        {
          "internalType": "uint256",
          "name": "tokenId_",
          "type": "uint256"
        }
      ],
      "name": "transferFrom",
      "outputs": [],
      "stateMutability": "payable",
      "type": "function"
    },
    {
      "inputs": [
        {
          "internalType": "uint256",
          "name": "fromTokenId_",
          "type": "uint256"
        },
        {
          "internalType": "uint256",
          "name": "toTokenId_",
          "type": "uint256"
        },
        {
          "internalType": "uint256",
          "name": "value_",
          "type": "uint256"
        }
      ],
      "name": "transferFrom",
      "outputs": [],
      "stateMutability": "payable",
      "type": "function"
    },
    {
      "inputs": [],
      "name": "uToken",
      "outputs": [
        {
          "internalType": "contract IERC20",
          "name": "",
          "type": "address"
        }
      ],
      "stateMutability": "view",
      "type": "function"
    },
    {
      "inputs": [],
      "name": "valueDecimals",
      "outputs": [
        {
          "internalType": "uint8",
          "name": "",
          "type": "uint8"
        }
      ],
      "stateMutability": "view",
      "type": "function"
    }
  ],
  "bytecode": "0x60806040523480156200001157600080fd5b506040516200426c3803806200426c83398101604081905262000034916200010d565b60405180604001604052806005815260200164446f726d7960d81b81525060405180604001604052806003815260200162444d5960e81b81525060128282828260009081620000849190620001fc565b506001620000938382620001fc565b506002805460ff191660ff929092169190911790555050600d80546001600160a01b03199081166001600160a01b0398891617909155600c80548216968816969096179095555050600e80549093169190931617905550620002c8565b80516001600160a01b03811681146200010857600080fd5b919050565b6000806000606084860312156200012357600080fd5b6200012e84620000f0565b92506200013e60208501620000f0565b91506200014e60408501620000f0565b90509250925092565b634e487b7160e01b600052604160045260246000fd5b600181811c908216806200018257607f821691505b602082108103620001a357634e487b7160e01b600052602260045260246000fd5b50919050565b601f821115620001f757600081815260208120601f850160051c81016020861015620001d25750805b601f850160051c820191505b81811015620001f357828155600101620001de565b5050505b505050565b81516001600160401b0381111562000218576200021862000157565b62000230816200022984546200016d565b84620001a9565b602080601f8311600181146200026857600084156200024f5750858301515b600019600386901b1c1916600185901b178555620001f3565b600085815260208120601f198616915b82811015620002995788860151825594840194600190910190840162000278565b5085821015620002b85787850151600019600388901b60f8161c191681555b5050505050600190811b01905550565b613f9480620002d86000396000f3fe6080604052600436106102035760003560e01c80634f8a0f8311610118578063a22cb465116100a0578063e345e0bc1161006f578063e345e0bc14610598578063e7356cb5146105b8578063e8a3d485146105d8578063e985e9c5146105ed578063ed08fa801461063a57600080fd5b8063a22cb46514610525578063b88d4fde14610545578063be20f9ac14610558578063c87b56dd1461057857600080fd5b8063840f7113116100e7578063840f71131461049d5780638cb0a511146104bd57806395d89b41146104d0578063993bef8d146104e55780639cc7f7081461050557600080fd5b80634f8a0f831461041d578063633156371461043d5780636352211e1461045d57806370a082311461047d57600080fd5b8063156e29f61161019b5780632f745c591161016a5780632f745c5914610395578063310ed7f0146103b55780633e7e8669146103c857806342842e0e146103ea5780634f6ccce7146103fd57600080fd5b8063156e29f61461032d57806318160ddd1461034d57806323b872dd14610362578063263f3e7e1461037557600080fd5b8063095ea7b3116101d7578063095ea7b3146102c557806309c3dd87146102da5780630f485c02146102fa57806313007d551461030d57600080fd5b8062cd01101461020857806301ffc9a71461023b57806306fdde031461026b578063081812fc1461028d575b600080fd5b34801561021457600080fd5b50610228610223366004613248565b61064f565b6040519081526020015b60405180910390f35b34801561024757600080fd5b5061025b610256366004613280565b610725565b6040519015158152602001610232565b34801561027757600080fd5b5061028061074a565b60405161023291906132ed565b34801561029957600080fd5b506102ad6102a8366004613300565b6107dc565b6040516001600160a01b039091168152602001610232565b6102d86102d336600461332e565b61082e565b005b3480156102e657600080fd5b506102806102f5366004613300565b610909565b61022861030836600461335a565b6109fb565b34801561031957600080fd5b50600c546102ad906001600160a01b031681565b34801561033957600080fd5b506102d8610348366004613392565b610a33565b34801561035957600080fd5b50600554610228565b6102d86103703660046133c7565b610ec9565b34801561038157600080fd5b50610228610390366004613300565b610efa565b3480156103a157600080fd5b506102286103b036600461332e565b610f42565b6102d86103c33660046133f7565b610fd0565b3480156103d457600080fd5b5060025460405160ff9091168152602001610232565b6102d86103f83660046133c7565b610fe6565b34801561040957600080fd5b50610228610418366004613300565b611001565b34801561042957600080fd5b50610228610438366004613300565b611092565b34801561044957600080fd5b50600e546102ad906001600160a01b031681565b34801561046957600080fd5b506102ad610478366004613300565b6110e7565b34801561048957600080fd5b50610228610498366004613423565b611183565b3480156104a957600080fd5b506008546102ad906001600160a01b031681565b6102d86104cb36600461335a565b61120b565b3480156104dc57600080fd5b506102806112ca565b3480156104f157600080fd5b50610228610500366004613300565b6112d9565b34801561051157600080fd5b50610228610520366004613300565b611376565b34801561053157600080fd5b506102d861054036600461344e565b6113be565b6102d8610553366004613520565b6113cd565b34801561056457600080fd5b50610280610573366004613300565b6113ff565b34801561058457600080fd5b50610280610593366004613300565b61144f565b3480156105a457600080fd5b506102286105b33660046135cf565b6114ee565b3480156105c457600080fd5b50600d546102ad906001600160a01b031681565b3480156105e457600080fd5b50610280611522565b3480156105f957600080fd5b5061025b6106083660046135f4565b6001600160a01b0391821660009081526007602090815260408083209390941682526002909201909152205460ff1690565b34801561064657600080fd5b50600a54610228565b600061065a83611092565b82106106cb5760405162461bcd60e51b815260206004820152603560248201527f45524333353235536c6f74456e756d657261626c653a20736c6f7420746f6b656044820152746e20696e646578206f7574206f6620626f756e647360581b60648201526084015b60405180910390fd5b6000838152600b6020526040902054600a805490919081106106ef576106ef613622565b9060005260206000209060020201600101828154811061071157610711613622565b906000526020600020015490505b92915050565b60006001600160e01b03198216631dba0dcf60e11b148061071f575061071f8261161c565b60606000805461075990613638565b80601f016020809104026020016040519081016040528092919081815260200182805461078590613638565b80156107d25780601f106107a7576101008083540402835291602001916107d2565b820191906000526020600020905b8154815290600101906020018083116107b557829003601f168201915b5050505050905090565b60006107e7826116be565b60008281526006602052604090205460058054909190811061080b5761080b613622565b60009182526020909120600460069092020101546001600160a01b031692915050565b6000610839826110e7565b9050806001600160a01b0316836001600160a01b03160361086c5760405162461bcd60e51b81526004016106c290613672565b336001600160a01b038216148061088857506108888133610608565b6108fa5760405162461bcd60e51b815260206004820152603960248201527f455243333532353a20617070726f76652063616c6c6572206973206e6f74206f60448201527f776e6572206e6f7220617070726f76656420666f7220616c6c0000000000000060648201526084016106c2565b6109048383611712565b505050565b6060600061092260408051602081019091526000815290565b6008549091506001600160a01b031661098257600081511161095357604051806020016040528060008152506109f4565b8061095d846117a9565b60405160200161096e9291906136d0565b6040516020818303038152906040526109f4565b600854604051633601bfc560e11b8152600481018590526001600160a01b0390911690636c037f8a906024015b600060405180830381865afa1580156109cc573d6000803e3d6000fd5b505050506040513d6000823e601f3d908101601f191682016040526109f49190810190613755565b9392505050565b6000610a0833858461183c565b610a11846118cc565b9050610a288382610a2187610efa565b60006118d6565b6109f4848284611a1b565b600c54604051634039ad0d60e01b81523360048201526001600160a01b0390911690634039ad0d90602401602060405180830381865afa158015610a7b573d6000803e3d6000fd5b505050506040513d601f19601f82011682018060405250810190610a9f919061378a565b610aeb5760405162461bcd60e51b815260206004820152601a60248201527f4f6e6c7920747261646572732063616e2063616c6c207468697300000000000060448201526064016106c2565b600d54604051630298a3ed60e41b8152600481018490526000916001600160a01b03169063298a3ed090602401602060405180830381865afa158015610b35573d6000803e3d6000fd5b505050506040513d601f19601f82011682018060405250810190610b5991906137a7565b90506000816001600160a01b0316635de5f3be6040518163ffffffff1660e01b8152600401600060405180830381865afa158015610b9b573d6000803e3d6000fd5b505050506040513d6000823e601f3d908101601f19168201604052610bc391908101906137dc565b9050600281604001516004811115610bdd57610bdd61388b565b03610c3c5760405162461bcd60e51b815260206004820152602960248201527f50726f7065727479205374617475732041626e6f726d616c2c2043616e6e6f7460448201526820507572636861736560b81b60648201526084016106c2565b6000826001600160a01b0316634dd93bd36040518163ffffffff1660e01b815260040161018060405180830381865afa158015610c7d573d6000803e3d6000fd5b505050506040513d601f19601f82011682018060405250810190610ca191906138a1565b9050838160600151610cb3919061395f565b816040015111610d105760405162461bcd60e51b815260206004820152602260248201527f496e73756666696369656e74207175616e7469747920666f7220707572636861604482015261736560f01b60648201526084016106c2565b600e5460208201516001600160a01b03909116906323b872dd9033903090610d39908990613972565b6040516001600160e01b031960e086901b1681526001600160a01b03938416600482015292909116602483015260448201526064016020604051808303816000875af1158015610d8d573d6000803e3d6000fd5b505050506040513d601f19601f82011682018060405250810190610db1919061378a565b610df45760405162461bcd60e51b8152602060048201526014602482015273496e73756666696369656e742062616c616e636560601b60448201526064016106c2565b600d5460608201516001600160a01b0390911690633b304b41908790610e1b90889061395f565b6040516001600160e01b031960e085901b16815260048101929092526024820152604401600060405180830381600087803b158015610e5957600080fd5b505af1158015610e6d573d6000803e3d6000fd5b50505050610e7c868686611d69565b5084866001600160a01b03167f4c209b5fc8ad50758f13e2e1088ba56a560dff690a1c6fef26394f4c03821c4f86604051610eb991815260200190565b60405180910390a3505050505050565b610ed33382611d81565b610eef5760405162461bcd60e51b81526004016106c290613989565b610904838383611e04565b6000610f05826116be565b600082815260066020526040902054600580549091908110610f2957610f29613622565b9060005260206000209060060201600101549050919050565b6000610f4d83611183565b8210610fa65760405162461bcd60e51b815260206004820152602260248201527f455243333532353a206f776e657220696e646578206f7574206f6620626f756e604482015261647360f01b60648201526084016106c2565b6001600160a01b038316600090815260076020526040902080548390811061071157610711613622565b610fdb33848361183c565b610904838383611a1b565b610904838383604051806020016040528060008152506113cd565b600061100c60055490565b82106110665760405162461bcd60e51b815260206004820152602360248201527f455243333532353a20676c6f62616c20696e646578206f7574206f6620626f756044820152626e647360e81b60648201526084016106c2565b6005828154811061107957611079613622565b9060005260206000209060060201600001549050919050565b600061109d82611f7c565b6110a957506000919050565b6000828152600b6020526040902054600a805490919081106110cd576110cd613622565b600091825260209091206001600290920201015492915050565b60006110f2826116be565b60008281526006602052604090205460058054909190811061111657611116613622565b60009182526020909120600360069092020101546001600160a01b031690508061117e5760405162461bcd60e51b8152602060048201526019602482015278115490cccd4c8d4e881a5b9d985b1a59081d1bdad95b881251603a1b60448201526064016106c2565b919050565b60006001600160a01b0382166111ef5760405162461bcd60e51b815260206004820152602b60248201527f455243333532353a2062616c616e636520717565727920666f7220746865207a60448201526a65726f206164647265737360a81b60648201526084016106c2565b506001600160a01b031660009081526007602052604090205490565b6000611216846110e7565b9050806001600160a01b0316836001600160a01b0316036112495760405162461bcd60e51b81526004016106c290613672565b6112533385611d81565b6112b95760405162461bcd60e51b815260206004820152603160248201527f455243333532353a20617070726f76652063616c6c6572206973206e6f74206f6044820152701ddb995c881b9bdc88185c1c1c9bdd9959607a1b60648201526084016106c2565b6112c4848484611fc8565b50505050565b60606001805461075990613638565b60006112e4600a5490565b821061134a5760405162461bcd60e51b815260206004820152602f60248201527f45524333353235536c6f74456e756d657261626c653a20736c6f7420696e646560448201526e78206f7574206f6620626f756e647360881b60648201526084016106c2565b600a828154811061135d5761135d613622565b9060005260206000209060020201600001549050919050565b6000611381826116be565b6000828152600660205260409020546005805490919081106113a5576113a5613622565b9060005260206000209060060201600201549050919050565b6113c9338383612100565b5050565b6113d73383611d81565b6113f35760405162461bcd60e51b81526004016106c290613989565b6112c4848484846121ca565b606061140a826117a9565b61141b61141684611376565b6117a9565b61142761141685610efa565b604051602001611439939291906139db565b6040516020818303038152906040529050919050565b606061145a826116be565b600061147160408051602081019091526000815290565b6008549091506001600160a01b03166114bd5760008151116114a257604051806020016040528060008152506109f4565b806114ac846117a9565b60405160200161096e929190613d7a565b6008546040516344a5a61760e11b8152600481018590526001600160a01b039091169063894b4c2e906024016109af565b60006114f9836116be565b5060009182526004602090815260408084206001600160a01b0393909316845291905290205490565b6060600061153b60408051602081019091526000815290565b6008549091506001600160a01b031661159b57600081511161156c5760405180602001604052806000815250611616565b806115763061223d565b604051602001611587929190613da9565b604051602081830303815290604052611616565b600860009054906101000a90046001600160a01b03166001600160a01b031663725fa09c6040518163ffffffff1660e01b8152600401600060405180830381865afa1580156115ee573d6000803e3d6000fd5b505050506040513d6000823e601f3d908101601f191682016040526116169190810190613755565b91505090565b60006001600160e01b031982166301ffc9a760e01b148061164d57506001600160e01b03198216630354d60560e61b145b8061166857506001600160e01b031982166380ac58cd60e01b145b8061168357506001600160e01b031982166370b0048160e11b145b8061169e57506001600160e01b0319821663780e9d6360e01b145b8061071f57506001600160e01b03198216635b5e139f60e01b1492915050565b6116c781612253565b61170f5760405162461bcd60e51b8152602060048201526019602482015278115490cccd4c8d4e881a5b9d985b1a59081d1bdad95b881251603a1b60448201526064016106c2565b50565b60008181526006602052604090205460058054849290811061173657611736613622565b6000918252602090912060069091020160040180546001600160a01b0319166001600160a01b0392831617905581908316611770826110e7565b6001600160a01b03167f8c5be1e5ebec7d5bd14f71427d1e84f3dd0314c0f7b2291e5b200ac8c7c3b92560405160405180910390a45050565b606060006117b68361229f565b600101905060008167ffffffffffffffff8111156117d6576117d6613487565b6040519080825280601f01601f191660200182016040528015611800576020820181803683370190505b5090508181016020015b600019016f181899199a1a9b1b9c1cb0b131b232b360811b600a86061a8153600a850494508461180a57509392505050565b600061184883856114ee565b90506118548484611d81565b15801561186357506000198114155b156112c457818110156118b85760405162461bcd60e51b815260206004820152601f60248201527f455243333532353a20696e73756666696369656e7420616c6c6f77616e63650060448201526064016106c2565b6112c483856118c78585613ded565b611fc8565b600061071f612377565b6001600160a01b0384166119365760405162461bcd60e51b815260206004820152602160248201527f455243333532353a206d696e7420746f20746865207a65726f206164647265736044820152607360f81b60648201526084016106c2565b826000036119905760405162461bcd60e51b815260206004820152602160248201527f455243333532353a2063616e6e6f74206d696e74207a65726f20746f6b656e496044820152601960fa1b60648201526084016106c2565b61199983612253565b156119e65760405162461bcd60e51b815260206004820152601d60248201527f455243333532353a20746f6b656e20616c7265616479206d696e74656400000060448201526064016106c2565b6119f6600085600086868661238e565b611a018484846123cb565b611a0b8382612491565b6112c46000856000868686612516565b611a2483612253565b611a805760405162461bcd60e51b815260206004820152602760248201527f455243333532353a207472616e736665722066726f6d20696e76616c696420746044820152661bdad95b88125160ca1b60648201526084016106c2565b611a8982612253565b611ae35760405162461bcd60e51b815260206004820152602560248201527f455243333532353a207472616e7366657220746f20696e76616c696420746f6b604482015264195b88125160da1b60648201526084016106c2565b600083815260066020526040812054600580549091908110611b0757611b07613622565b9060005260206000209060060201905060006005600660008681526020019081526020016000205481548110611b3f57611b3f613622565b906000526020600020906006020190508282600201541015611bb65760405162461bcd60e51b815260206004820152602a60248201527f455243333532353a20696e73756666696369656e742062616c616e636520666f60448201526939103a3930b739b332b960b11b60648201526084016106c2565b8060010154826001015414611c245760405162461bcd60e51b815260206004820152602e60248201527f455243333532353a207472616e7366657220746f20746f6b656e20776974682060448201526d191a5999995c995b9d081cdb1bdd60921b60648201526084016106c2565b600380830154908201546001840154611c4f926001600160a01b03908116921690889088908861238e565b82826002016000828254611c639190613ded565b9250508190555082816002016000828254611c7e919061395f565b9091555050604051838152849086907f0b2aac84f3ec956911fd78eae5311062972ff949f38412e8da39069d9f068cc69060200160405180910390a3600380830154908201546001840154611ce5926001600160a01b039081169216908890889088612516565b611d0085858560405180602001604052806000815250612587565b611d625760405162461bcd60e51b815260206004820152602d60248201527f455243333532353a207472616e736665722072656a656374656420627920455260448201526c21999a991aa932b1b2b4bb32b960991b60648201526084016106c2565b5050505050565b6000611d73612377565b90506109f4848285856118d6565b600080611d8d836110e7565b9050806001600160a01b0316846001600160a01b03161480611dd857506001600160a01b038082166000908152600760209081526040808320938816835260029093019052205460ff165b80611dfc5750836001600160a01b0316611df1846107dc565b6001600160a01b0316145b949350505050565b826001600160a01b0316611e17826110e7565b6001600160a01b031614611e795760405162461bcd60e51b8152602060048201526024808201527f455243333532353a207472616e736665722066726f6d20696e76616c6964206f6044820152633bb732b960e11b60648201526084016106c2565b6001600160a01b038216611edd5760405162461bcd60e51b815260206004820152602560248201527f455243333532353a207472616e7366657220746f20746865207a65726f206164604482015264647265737360d81b60648201526084016106c2565b6000611ee882610efa565b90506000611ef583611376565b9050611f0585858586868661238e565b611f10600084611712565b611f19836126fc565b611f2385846127a7565b611f2d84846128c8565b82846001600160a01b0316866001600160a01b03167fddf252ad1be2c89b69c2b068fc378daa952ba7f163c4a11628f55a4df523b3ef60405160405180910390a4611d62858585868686612516565b600a546000901580159061071f57506000828152600b6020526040902054600a80548492908110611faf57611faf613622565b9060005260206000209060020201600001541492915050565b6001600160a01b0382166120315760405162461bcd60e51b815260206004820152602a60248201527f455243333532353a20617070726f76652076616c756520746f20746865207a65604482015269726f206164647265737360b01b60648201526084016106c2565b61203b8284612951565b6120a15760008381526006602052604090205460058054909190811061206357612063613622565b60009182526020808320600692909202909101600501805460018101825590835291200180546001600160a01b0319166001600160a01b0384161790555b60008381526004602090815260408083206001600160a01b038616808552908352928190208490555183815285917f621b050de0ad08b51d19b48b3e6df75348c4de6bdd93e81b252ca62e28265b1b91015b60405180910390a3505050565b816001600160a01b0316836001600160a01b0316036121615760405162461bcd60e51b815260206004820152601a60248201527f455243333532353a20617070726f766520746f2063616c6c657200000000000060448201526064016106c2565b6001600160a01b0383811660008181526007602090815260408083209487168084526002909501825291829020805460ff191686151590811790915591519182527f17307eab39ab6107e8899845ad3d59bd9653f200f220920489ca2b5937696c3191016120f3565b6121d5848484611e04565b6121e184848484612a24565b6112c45760405162461bcd60e51b815260206004820152602760248201527f455243333532353a207472616e7366657220746f206e6f6e204552433732315260448201526632b1b2b4bb32b960c91b60648201526084016106c2565b606061071f6001600160a01b0383166014612b6d565b6005546000901580159061071f575060008281526006602052604090205460058054849290811061228657612286613622565b9060005260206000209060060201600001541492915050565b60008072184f03e93ff9f4daa797ed6e38ed64bf6a1f0160401b83106122de5772184f03e93ff9f4daa797ed6e38ed64bf6a1f0160401b830492506040015b6d04ee2d6d415b85acef8100000000831061230a576d04ee2d6d415b85acef8100000000830492506020015b662386f26fc10000831061232857662386f26fc10000830492506010015b6305f5e1008310612340576305f5e100830492506008015b612710831061235457612710830492506004015b60648310612366576064830492506002015b600a831061071f5760010192915050565b6000612387600380546001019055565b5060035490565b6001600160a01b0386161580156123a3575083155b80156123b557506123b382611f7c565b155b156123c3576123c382612d09565b505050505050565b6040805160c081018252838152602080820184905260008284018190526001600160a01b038716606084015260808301819052835181815291820190935260a0820152905061241981612dd0565b61242384846128c8565b60405183906001600160a01b038616906000907fddf252ad1be2c89b69c2b068fc378daa952ba7f163c4a11628f55a4df523b3ef908290a4816000847fe4f48c240d3b994948aa54f3e2f5fca59263dfe1d52b6e4cf39a5d249b5ccb6560405160405180910390a450505050565b6000828152600660205260409020546005805483929081106124b5576124b5613622565b906000526020600020906006020160020160008282546124d5919061395f565b909155505060405181815282906000907f0b2aac84f3ec956911fd78eae5311062972ff949f38412e8da39069d9f068cc69060200160405180910390a35050565b6001600160a01b03861615801561252b575083155b801561253e575061253c8284612f1f565b155b156125525761254d8284612fab565b6123c3565b6001600160a01b038516158015612567575082155b801561257857506125788285612f1f565b1561254d5761254d828561300c565b600080612593856110e7565b90506001600160a01b0381163b156126f0576040516301ffc9a760e01b8152629ce20b60e01b60048201526001600160a01b038216906301ffc9a790602401602060405180830381865afa92505050801561260b575060408051601f3d908101601f191682019092526126089181019061378a565b60015b61264a573d808015612639576040519150601f19603f3d011682016040523d82523d6000602084013e61263e565b606091505b50600192505050611dfc565b80156126e557604051629ce20b60e01b81526000906001600160a01b03841690629ce20b906126859033908c908c908c908c90600401613e00565b6020604051808303816000875af11580156126a4573d6000803e3d6000fd5b505050506040513d601f19601f820116820180604052508101906126c89190613e3e565b6001600160e01b031916629ce20b60e01b149350611dfc92505050565b600192505050611dfc565b50600195945050505050565b60008181526006602052604081205460058054909190811061272057612720613622565b600091825260208220600560069092020190810154909250905b8181101561279857600083600501828154811061275957612759613622565b60009182526020808320909101548783526004825260408084206001600160a01b0390921684529152812055508061279081613e5b565b91505061273a565b50610904600583016000613175565b6000818152600660205260408120546005805490919081106127cb576127cb613622565b6000918252602080832060069290920290910160030180546001600160a01b0319166001600160a01b039485161790559184168152600790915260408120805490919061281a90600190613ded565b9050600082600001828154811061283357612833613622565b9060005260206000200154905060008360010160008681526020019081526020016000205490508184600001828154811061287057612870613622565b600091825260208083209091019290925583815260018601909152604080822083905586825281205583548490806128aa576128aa613e74565b60019003818190600052602060002001600090559055505050505050565b6000818152600660205260409020546005805484929081106128ec576128ec613622565b6000918252602080832060069290920290910160030180546001600160a01b0319166001600160a01b03948516179055939091168152600780845260408083208054858552600182810188529285208190559286529082018155825292902090910155565b60008181526006602052604081205460058054839290811061297557612975613622565b6000918252602082206005600690920201015491505b81811015612a1957600084815260066020526040902054600580546001600160a01b038816929081106129c0576129c0613622565b906000526020600020906006020160050182815481106129e2576129e2613622565b6000918252602090912001546001600160a01b031603612a075760019250505061071f565b80612a1181613e5b565b91505061298b565b506000949350505050565b60006001600160a01b0384163b15612b6557604051630a85bd0160e11b81526001600160a01b0385169063150b7a0290612a68903390899088908890600401613e8a565b6020604051808303816000875af1925050508015612aa3575060408051601f3d908101601f19168201909252612aa091810190613e3e565b60015b612b4b573d808015612ad1576040519150601f19603f3d011682016040523d82523d6000602084013e612ad6565b606091505b508051600003612b435760405162461bcd60e51b815260206004820152603260248201527f4552433732313a207472616e7366657220746f206e6f6e20455243373231526560448201527131b2b4bb32b91034b6b83632b6b2b73a32b960711b60648201526084016106c2565b805181602001fd5b6001600160e01b031916630a85bd0160e11b149050611dfc565b506001611dfc565b60606000612b7c836002613972565b612b8790600261395f565b67ffffffffffffffff811115612b9f57612b9f613487565b6040519080825280601f01601f191660200182016040528015612bc9576020820181803683370190505b509050600360fc1b81600081518110612be457612be4613622565b60200101906001600160f81b031916908160001a905350600f60fb1b81600181518110612c1357612c13613622565b60200101906001600160f81b031916908160001a9053506000612c37846002613972565b612c4290600161395f565b90505b6001811115612cba576f181899199a1a9b1b9c1cb0b131b232b360811b85600f1660108110612c7657612c76613622565b1a60f81b828281518110612c8c57612c8c613622565b60200101906001600160f81b031916908160001a90535060049490941c93612cb381613ec7565b9050612c45565b5083156109f45760405162461bcd60e51b815260206004820181905260248201527f537472696e67733a20686578206c656e67746820696e73756666696369656e7460448201526064016106c2565b612d1281611f7c565b15612d725760405162461bcd60e51b815260206004820152602a60248201527f45524333353235536c6f74456e756d657261626c653a20736c6f7420616c72656044820152696164792065786973747360b01b60648201526084016106c2565b604080518082018252828152815160008082526020828101909452928201529050612d9c816130f0565b816000807fe4f48c240d3b994948aa54f3e2f5fca59263dfe1d52b6e4cf39a5d249b5ccb6560405160405180910390a45050565b600580548251600090815260066020818152604080842085905560018501865594909252845192027f036b6384b5eca791c62761152d0c79bb0604c104a5fb6f4eb0703f3154bb3db08101928355818501517f036b6384b5eca791c62761152d0c79bb0604c104a5fb6f4eb0703f3154bb3db1820155928401517f036b6384b5eca791c62761152d0c79bb0604c104a5fb6f4eb0703f3154bb3db284015560608401517f036b6384b5eca791c62761152d0c79bb0604c104a5fb6f4eb0703f3154bb3db3840180546001600160a01b039283166001600160a01b03199182161790915560808601517f036b6384b5eca791c62761152d0c79bb0604c104a5fb6f4eb0703f3154bb3db48601805491909316911617905560a0840151805185946112c4937f036b6384b5eca791c62761152d0c79bb0604c104a5fb6f4eb0703f3154bb3db5909101920190613193565b6000828152600b6020526040812054600a80548392908110612f4357612f43613622565b9060005260206000209060020201905060008160010180549050118015611dfc575060008481526009602090815260408083208684529091529020546001820180548592908110612f9657612f96613622565b90600052602060002001541491505092915050565b6000828152600b6020526040812054600a80549091908110612fcf57612fcf613622565b6000918252602080832060016002909302018201805496845260098252604080852087865283528420879055918601825590825290209092015550565b6000828152600b6020526040812054600a8054909190811061303057613030613622565b6000918252602082206001600290920201818101549093506130529190613ded565b9050600082600101828154811061306b5761306b613622565b60009182526020808320909101548783526009825260408084208885529092529120546001850180549293509091839190839081106130ac576130ac613622565b60009182526020808320919091019290925587815260098252604080822085835290925281812083905586815290812055600184018054806128aa576128aa613e74565b600a805482516000908152600b602090815260408220839055600183018455929052825160029091027fc65a7bb8d6351c1cf70c95a316cc6a92839c986682d98bc35f958f4883f9d2a8810191825582840151805185946112c4937fc65a7bb8d6351c1cf70c95a316cc6a92839c986682d98bc35f958f4883f9d2a9019201906131f8565b508054600082559060005260206000209081019061170f9190613233565b8280548282559060005260206000209081019282156131e8579160200282015b828111156131e857825182546001600160a01b0319166001600160a01b039091161782556020909201916001909101906131b3565b506131f4929150613233565b5090565b8280548282559060005260206000209081019282156131e8579160200282015b828111156131e8578251825591602001919060010190613218565b5b808211156131f45760008155600101613234565b6000806040838503121561325b57600080fd5b50508035926020909101359150565b6001600160e01b03198116811461170f57600080fd5b60006020828403121561329257600080fd5b81356109f48161326a565b60005b838110156132b85781810151838201526020016132a0565b50506000910152565b600081518084526132d981602086016020860161329d565b601f01601f19169290920160200192915050565b6020815260006109f460208301846132c1565b60006020828403121561331257600080fd5b5035919050565b6001600160a01b038116811461170f57600080fd5b6000806040838503121561334157600080fd5b823561334c81613319565b946020939093013593505050565b60008060006060848603121561336f57600080fd5b83359250602084013561338181613319565b929592945050506040919091013590565b6000806000606084860312156133a757600080fd5b83356133b281613319565b95602085013595506040909401359392505050565b6000806000606084860312156133dc57600080fd5b83356133e781613319565b9250602084013561338181613319565b60008060006060848603121561340c57600080fd5b505081359360208301359350604090920135919050565b60006020828403121561343557600080fd5b81356109f481613319565b801515811461170f57600080fd5b6000806040838503121561346157600080fd5b823561346c81613319565b9150602083013561347c81613440565b809150509250929050565b634e487b7160e01b600052604160045260246000fd5b604051610180810167ffffffffffffffff811182821017156134c1576134c1613487565b60405290565b604051601f8201601f1916810167ffffffffffffffff811182821017156134f0576134f0613487565b604052919050565b600067ffffffffffffffff82111561351257613512613487565b50601f01601f191660200190565b6000806000806080858703121561353657600080fd5b843561354181613319565b9350602085013561355181613319565b925060408501359150606085013567ffffffffffffffff81111561357457600080fd5b8501601f8101871361358557600080fd5b8035613598613593826134f8565b6134c7565b8181528860208385010111156135ad57600080fd5b8160208401602083013760006020838301015280935050505092959194509250565b600080604083850312156135e257600080fd5b82359150602083013561347c81613319565b6000806040838503121561360757600080fd5b823561361281613319565b9150602083013561347c81613319565b634e487b7160e01b600052603260045260246000fd5b600181811c9082168061364c57607f821691505b60208210810361366c57634e487b7160e01b600052602260045260246000fd5b50919050565b60208082526022908201527f455243333532353a20617070726f76616c20746f2063757272656e74206f776e60408201526132b960f11b606082015260800190565b600081516136c681856020860161329d565b9290920192915050565b600083516136e281846020880161329d565b64736c6f742f60d81b908301908152835161370481600584016020880161329d565b01600501949350505050565b600082601f83011261372157600080fd5b815161372f613593826134f8565b81815284602083860101111561374457600080fd5b611dfc82602083016020870161329d565b60006020828403121561376757600080fd5b815167ffffffffffffffff81111561377e57600080fd5b611dfc84828501613710565b60006020828403121561379c57600080fd5b81516109f481613440565b6000602082840312156137b957600080fd5b81516109f481613319565b805167ffffffffffffffff8116811461117e57600080fd5b6000602082840312156137ee57600080fd5b815167ffffffffffffffff8082111561380657600080fd5b908301906060828603121561381a57600080fd5b60405160608101818110838211171561383557613835613487565b60405282518281111561384757600080fd5b61385387828601613710565b825250613862602084016137c4565b6020820152604083015192506005831061387b57600080fd5b6040810192909252509392505050565b634e487b7160e01b600052602160045260246000fd5b600061018082840312156138b457600080fd5b6138bc61349d565b825181526020830151602082015260408301516040820152606083015160608201526080830151608082015260a083015160a082015260c083015160c082015261390860e084016137c4565b60e082015261010061391b8185016137c4565b9082015261012083810151908201526101408084015190820152610160928301519281019290925250919050565b634e487b7160e01b600052601160045260246000fd5b8082018082111561071f5761071f613949565b808202811582820484141761071f5761071f613949565b60208082526032908201527f455243333532353a207472616e736665722063616c6c6572206973206e6f74206040820152711bdddb995c881b9bdc88185c1c1c9bdd995960721b606082015260800190565b7f3c7376672077696474683d2236303022206865696768743d223630302220786d81527f6c6e733d22687474703a2f2f7777772e77332e6f72672f323030302f737667226020820152601f60f91b60408201527f203c673e203c7469746c653e4c6179657220313c2f7469746c653e000000000060418201527f20203c726563742069643d227376675f3122206865696768743d223630302220605c8201527f77696474683d223630302220793d22302220783d223022207374726f6b653d22607c820152751198181811103334b6361e911198181818181811179f60511b609c820152600080516020613f1f83398151915260b2820152600080516020613edf83398151915260d2820152600080516020613eff83398151915260f28201527f76675f322220793d223334302220783d2232303022207374726f6b652d776964610112820152600080516020613f3f8339815191526101328201526c03333111f2a37b5b2b724b21d1609d1b6101528201526000613d71613d59613caf613b75613ca9613c1d82613c17613b888261015f8c018f6136b4565b661e17ba32bc3a1f60c91b815260070190565b600080516020613f1f8339815191528152600080516020613edf8339815191526020820152600080516020613eff83398151915260408201527f76675f332220793d223431302220783d2232303022207374726f6b652d7769646060820152600080516020613f3f83398151915260808201526c03333111f2130b630b731b29d1609d1b60a082015260ad0190565b8b6136b4565b600080516020613f1f8339815191528152600080516020613edf8339815191526020820152600080516020613eff83398151915260408201527f76675f332220793d223237302220783d2232303022207374726f6b652d7769646060820152600080516020613f3f83398151915260808201526903333111f29b637ba1d160b51b60a082015260aa0190565b876136b4565b600080516020613f1f8339815191528152600080516020613edf8339815191526020820152600080516020613eff83398151915260408201527f76675f342220793d223136302220783d2231353022207374726f6b652d7769646060820152600080516020613f3f83398151915260808201527f6666223e455243333532352047455454494e4720535441525445443c2f74657860a0820152613a1f60f11b60c082015260c20190565b6b101e17b39f101e17b9bb339f60a11b8152600c0190565b95945050505050565b60008351613d8c81846020880161329d565b835190830190613da081836020880161329d565b01949350505050565b60008351613dbb81846020880161329d565b68636f6e74726163742f60b81b9083019081528351613de181600984016020880161329d565b01600901949350505050565b8181038181111561071f5761071f613949565b60018060a01b038616815284602082015283604082015282606082015260a060808201526000613e3360a08301846132c1565b979650505050505050565b600060208284031215613e5057600080fd5b81516109f48161326a565b600060018201613e6d57613e6d613949565b5060010190565b634e487b7160e01b600052603160045260246000fd5b6001600160a01b0385811682528416602082015260408101839052608060608201819052600090613ebd908301846132c1565b9695505050505050565b600081613ed657613ed6613949565b50600019019056fe742d616e63686f723d2273746172742220666f6e742d66616d696c793d224e6f746f2053616e73204a502220666f6e742d73697a653d223234222069643d227320203c7465787420786d6c3a73706163653d227072657365727665222074657874683d223022207374726f6b653d2223303030222066696c6c3d222366666666a2646970667358221220978130412fa84ad3ecdbeb8c82f30a03d29bdb9f1918624a34406d6421aecf8b64736f6c63430008140033",
  "linkReferences": {},
  "deployedLinkReferences": {}
}