{
  "_format": "hh-sol-artifact-1",
  "contractName": "Property",
  "sourceName": "contracts/dormy/Property.sol",
  "abi": [
    {
      "inputs": [
        {
          "internalType": "address",
          "name": "_accessControlAddress",
          "type": "address"
        }
      ],
      "stateMutability": "nonpayable",
      "type": "constructor"
    },
    {
      "inputs": [],
      "name": "accessControl",
      "outputs": [
        {
          "internalType": "contract IAccessControl",
          "name": "",
          "type": "address"
        }
      ],
      "stateMutability": "view",
      "type": "function"
    },
    {
      "inputs": [],
      "name": "getInvestmentValue",
      "outputs": [
        {
          "components": [
            {
              "internalType": "uint256",
              "name": "propertyPrice",
              "type": "uint256"
            },
            {
              "internalType": "uint256",
              "name": "tokenPrice",
              "type": "uint256"
            },
            {
              "internalType": "uint256",
              "name": "tokenAmount",
              "type": "uint256"
            },
            {
              "internalType": "uint256",
              "name": "soldQuantity",
              "type": "uint256"
            },
            {
              "internalType": "uint256",
              "name": "projectedAnnualReturn",
              "type": "uint256"
            },
            {
              "internalType": "uint256",
              "name": "projectedRentalYield",
              "type": "uint256"
            },
            {
              "internalType": "uint64",
              "name": "rentStartDate",
              "type": "uint64"
            },
            {
              "internalType": "uint64",
              "name": "saleStartTime",
              "type": "uint64"
            },
            {
              "internalType": "uint64",
              "name": "saleEndTime",
              "type": "uint64"
            },
            {
              "internalType": "uint256",
              "name": "minPurchase",
              "type": "uint256"
            },
            {
              "internalType": "uint256",
              "name": "maxPurchase",
              "type": "uint256"
            },
            {
              "internalType": "uint256",
              "name": "minIncrement",
              "type": "uint256"
            }
          ],
          "internalType": "struct IProperty.InvestmentValue",
          "name": "",
          "type": "tuple"
        }
      ],
      "stateMutability": "view",
      "type": "function"
    },
    {
      "inputs": [],
      "name": "getPropertyDocument",
      "outputs": [
        {
          "components": [
            {
              "internalType": "string",
              "name": "name",
              "type": "string"
            },
            {
              "internalType": "string",
              "name": "hash",
              "type": "string"
            }
          ],
          "internalType": "struct IProperty.Document",
          "name": "",
          "type": "tuple"
        }
      ],
      "stateMutability": "view",
      "type": "function"
    },
    {
      "inputs": [],
      "name": "getPropertyInfo",
      "outputs": [
        {
          "components": [
            {
              "internalType": "string",
              "name": "propertyNumber",
              "type": "string"
            },
            {
              "internalType": "uint64",
              "name": "creation",
              "type": "uint64"
            },
            {
              "internalType": "enum IProperty.PropertyStatus",
              "name": "propertyStatus",
              "type": "uint8"
            }
          ],
          "internalType": "struct IProperty.PropertyInfo",
          "name": "",
          "type": "tuple"
        }
      ],
      "stateMutability": "view",
      "type": "function"
    },
    {
      "inputs": [],
      "name": "getPropertyLocation",
      "outputs": [
        {
          "components": [
            {
              "internalType": "string",
              "name": "country",
              "type": "string"
            },
            {
              "internalType": "string",
              "name": "county",
              "type": "string"
            },
            {
              "internalType": "string",
              "name": "city",
              "type": "string"
            },
            {
              "internalType": "string",
              "name": "state",
              "type": "string"
            },
            {
              "internalType": "string",
              "name": "postalCode",
              "type": "string"
            },
            {
              "internalType": "string",
              "name": "address1",
              "type": "string"
            },
            {
              "internalType": "string",
              "name": "address2",
              "type": "string"
            }
          ],
          "internalType": "struct IProperty.PropertyLocationData",
          "name": "",
          "type": "tuple"
        }
      ],
      "stateMutability": "view",
      "type": "function"
    },
    {
      "inputs": [],
      "name": "getPropertyStatus",
      "outputs": [
        {
          "internalType": "enum IProperty.PropertyStatus",
          "name": "",
          "type": "uint8"
        }
      ],
      "stateMutability": "view",
      "type": "function"
    },
    {
      "inputs": [],
      "name": "getTenancy",
      "outputs": [
        {
          "components": [
            {
              "internalType": "string",
              "name": "contractLink",
              "type": "string"
            },
            {
              "internalType": "enum IProperty.TenancyStatus",
              "name": "tenancyStatus",
              "type": "uint8"
            }
          ],
          "internalType": "struct IProperty.Tenancy",
          "name": "",
          "type": "tuple"
        }
      ],
      "stateMutability": "view",
      "type": "function"
    },
    {
      "inputs": [],
      "name": "getTenancyStatus",
      "outputs": [
        {
          "internalType": "enum IProperty.TenancyStatus",
          "name": "",
          "type": "uint8"
        }
      ],
      "stateMutability": "view",
      "type": "function"
    },
    {
      "inputs": [
        {
          "components": [
            {
              "internalType": "string",
              "name": "name",
              "type": "string"
            },
            {
              "internalType": "string",
              "name": "hash",
              "type": "string"
            }
          ],
          "internalType": "struct IProperty.Document",
          "name": "_document",
          "type": "tuple"
        }
      ],
      "name": "updateDocument",
      "outputs": [],
      "stateMutability": "nonpayable",
      "type": "function"
    },
    {
      "inputs": [
        {
          "components": [
            {
              "internalType": "uint256",
              "name": "propertyPrice",
              "type": "uint256"
            },
            {
              "internalType": "uint256",
              "name": "tokenPrice",
              "type": "uint256"
            },
            {
              "internalType": "uint256",
              "name": "tokenAmount",
              "type": "uint256"
            },
            {
              "internalType": "uint256",
              "name": "soldQuantity",
              "type": "uint256"
            },
            {
              "internalType": "uint256",
              "name": "projectedAnnualReturn",
              "type": "uint256"
            },
            {
              "internalType": "uint256",
              "name": "projectedRentalYield",
              "type": "uint256"
            },
            {
              "internalType": "uint64",
              "name": "rentStartDate",
              "type": "uint64"
            },
            {
              "internalType": "uint64",
              "name": "saleStartTime",
              "type": "uint64"
            },
            {
              "internalType": "uint64",
              "name": "saleEndTime",
              "type": "uint64"
            },
            {
              "internalType": "uint256",
              "name": "minPurchase",
              "type": "uint256"
            },
            {
              "internalType": "uint256",
              "name": "maxPurchase",
              "type": "uint256"
            },
            {
              "internalType": "uint256",
              "name": "minIncrement",
              "type": "uint256"
            }
          ],
          "internalType": "struct IProperty.InvestmentValue",
          "name": "_investmentValue",
          "type": "tuple"
        }
      ],
      "name": "updateInvestmentValue",
      "outputs": [],
      "stateMutability": "nonpayable",
      "type": "function"
    },
    {
      "inputs": [
        {
          "components": [
            {
              "internalType": "string",
              "name": "propertyNumber",
              "type": "string"
            },
            {
              "internalType": "uint64",
              "name": "creation",
              "type": "uint64"
            },
            {
              "internalType": "enum IProperty.PropertyStatus",
              "name": "propertyStatus",
              "type": "uint8"
            }
          ],
          "internalType": "struct IProperty.PropertyInfo",
          "name": "_info",
          "type": "tuple"
        }
      ],
      "name": "updatePropertyInfo",
      "outputs": [],
      "stateMutability": "nonpayable",
      "type": "function"
    },
    {
      "inputs": [
        {
          "components": [
            {
              "internalType": "string",
              "name": "country",
              "type": "string"
            },
            {
              "internalType": "string",
              "name": "county",
              "type": "string"
            },
            {
              "internalType": "string",
              "name": "city",
              "type": "string"
            },
            {
              "internalType": "string",
              "name": "state",
              "type": "string"
            },
            {
              "internalType": "string",
              "name": "postalCode",
              "type": "string"
            },
            {
              "internalType": "string",
              "name": "address1",
              "type": "string"
            },
            {
              "internalType": "string",
              "name": "address2",
              "type": "string"
            }
          ],
          "internalType": "struct IProperty.PropertyLocationData",
          "name": "_location",
          "type": "tuple"
        }
      ],
      "name": "updatePropertyLocation",
      "outputs": [],
      "stateMutability": "nonpayable",
      "type": "function"
    },
    {
      "inputs": [
        {
          "internalType": "enum IProperty.PropertyStatus",
          "name": "status",
          "type": "uint8"
        }
      ],
      "name": "updatePropertyStatus",
      "outputs": [],
      "stateMutability": "nonpayable",
      "type": "function"
    },
    {
      "inputs": [
        {
          "components": [
            {
              "internalType": "string",
              "name": "contractLink",
              "type": "string"
            },
            {
              "internalType": "enum IProperty.TenancyStatus",
              "name": "tenancyStatus",
              "type": "uint8"
            }
          ],
          "internalType": "struct IProperty.Tenancy",
          "name": "_tenancy",
          "type": "tuple"
        }
      ],
      "name": "updateTenancy",
      "outputs": [],
      "stateMutability": "nonpayable",
      "type": "function"
    },
    {
      "inputs": [
        {
          "internalType": "enum IProperty.TenancyStatus",
          "name": "_tenancyStatus",
          "type": "uint8"
        }
      ],
      "name": "updateTenancyStatus",
      "outputs": [],
      "stateMutability": "nonpayable",
      "type": "function"
    }
  ],
  "bytecode": "0x608060405234801561001057600080fd5b50604051611adf380380611adf83398101604081905261002f91610054565b600080546001600160a01b0319166001600160a01b0392909216919091179055610084565b60006020828403121561006657600080fd5b81516001600160a01b038116811461007d57600080fd5b9392505050565b611a4c806100936000396000f3fe608060405234801561001057600080fd5b50600436106100f55760003560e01c80635de5f3be116100975780638d1dacf4116100665780638d1dacf4146101f7578063a73e0dad1461020a578063e13be2081461021f578063ffd0dda91461023457600080fd5b80635de5f3be146101a25780635e7d39fe146101b7578063626d4b35146101ca5780637042421a146101e457600080fd5b80631dbf6e5f116100d35780631dbf6e5f1461015457806321c7de2c146101675780634dd93bd31461017a5780634fc09e4b1461018f57600080fd5b8063057d0e44146100fa57806313007d551461010f5780631abf6b871461013f575b600080fd5b61010d610108366004611198565b610247565b005b600054610122906001600160a01b031681565b6040516001600160a01b0390911681526020015b60405180910390f35b61014761031d565b604051610136919061125b565b61010d6101623660046112b4565b610467565b61010d610175366004611372565b610598565b610182610684565b6040516101369190611416565b61010d61019d3660046114c7565b61078c565b6101aa610842565b6040516101369190611581565b61010d6101c53660046115cc565b61094f565b600254600160401b900460ff1660405161013691906115ee565b60155460ff166040516101369190611612565b61010d610205366004611620565b6109fe565b610212610ab0565b604051610136919061163b565b610227610e79565b6040516101369190611708565b61010d610242366004611738565b610f5c565b600054604051630935e01b60e21b81523360048201526001600160a01b03909116906324d7806c90602401602060405180830381865afa15801561028f573d6000803e3d6000fd5b505050506040513d601f19601f820116820180604052508101906102b3919061187c565b6102d85760405162461bcd60e51b81526004016102cf9061189e565b60405180910390fd5b8051819060149081906102eb9082611957565b50602082015160018083018054909160ff199091169083600281111561031357610313611557565b0217905550505050565b6040805180820190915260608082526020820152601660405180604001604052908160008201805461034e906118ce565b80601f016020809104026020016040519081016040528092919081815260200182805461037a906118ce565b80156103c75780601f1061039c576101008083540402835291602001916103c7565b820191906000526020600020905b8154815290600101906020018083116103aa57829003601f168201915b505050505081526020016001820180546103e0906118ce565b80601f016020809104026020016040519081016040528092919081815260200182805461040c906118ce565b80156104595780601f1061042e57610100808354040283529160200191610459565b820191906000526020600020905b81548152906001019060200180831161043c57829003601f168201915b505050505081525050905090565b600054604051630935e01b60e21b81523360048201526001600160a01b03909116906324d7806c90602401602060405180830381865afa1580156104af573d6000803e3d6000fd5b505050506040513d601f19601f820116820180604052508101906104d3919061187c565b6104ef5760405162461bcd60e51b81526004016102cf9061189e565b8051600a556020810151600b556040810151600c556060810151600d556080810151600e5560a0810151600f5560c08101516010805460e08401516101008501516001600160401b03908116600160801b0267ffffffffffffffff60801b19928216600160401b026fffffffffffffffffffffffffffffffff19909416919095161791909117169190911790556101208101516011556101408101516012556101600151601355565b600054604051630935e01b60e21b81523360048201526001600160a01b03909116906324d7806c90602401602060405180830381865afa1580156105e0573d6000803e3d6000fd5b505050506040513d601f19601f82011682018060405250810190610604919061187c565b6106205760405162461bcd60e51b81526004016102cf9061189e565b8051819060019081906106339082611957565b5060208201516001820180546001600160401b0390921667ffffffffffffffff1983168117825560408501519268ffffffffffffffffff191617600160401b83600481111561031357610313611557565b61070360405180610180016040528060008152602001600081526020016000815260200160008152602001600081526020016000815260200160006001600160401b0316815260200160006001600160401b0316815260200160006001600160401b031681526020016000815260200160008152602001600081525090565b506040805161018081018252600a548152600b546020820152600c5491810191909152600d546060820152600e546080820152600f5460a08201526010546001600160401b0380821660c0840152600160401b8204811660e0840152600160801b9091041661010082015260115461012082015260125461014082015260135461016082015290565b600054604051630935e01b60e21b81523360048201526001600160a01b03909116906324d7806c90602401602060405180830381865afa1580156107d4573d6000803e3d6000fd5b505050506040513d601f19601f820116820180604052508101906107f8919061187c565b6108145760405162461bcd60e51b81526004016102cf9061189e565b8051819060169081906108279082611957565b506020820151600182019061083c9082611957565b50505050565b61086360408051606080820183528152600060208201819052909182015290565b6001604051806060016040529081600082018054610880906118ce565b80601f01602080910402602001604051908101604052809291908181526020018280546108ac906118ce565b80156108f95780601f106108ce576101008083540402835291602001916108f9565b820191906000526020600020905b8154815290600101906020018083116108dc57829003601f168201915b505050918352505060018201546001600160401b0381166020830152604090910190600160401b900460ff16600481111561093657610936611557565b600481111561094757610947611557565b905250919050565b600054604051630935e01b60e21b81523360048201526001600160a01b03909116906324d7806c90602401602060405180830381865afa158015610997573d6000803e3d6000fd5b505050506040513d601f19601f820116820180604052508101906109bb919061187c565b6109d75760405162461bcd60e51b81526004016102cf9061189e565b6015805482919060ff191660018360028111156109f6576109f6611557565b021790555050565b600054604051630935e01b60e21b81523360048201526001600160a01b03909116906324d7806c90602401602060405180830381865afa158015610a46573d6000803e3d6000fd5b505050506040513d601f19601f82011682018060405250810190610a6a919061187c565b610a865760405162461bcd60e51b81526004016102cf9061189e565b6002805482919068ff00000000000000001916600160401b8360048111156109f6576109f6611557565b610af06040518060e00160405280606081526020016060815260200160608152602001606081526020016060815260200160608152602001606081525090565b60036040518060e0016040529081600082018054610b0d906118ce565b80601f0160208091040260200160405190810160405280929190818152602001828054610b39906118ce565b8015610b865780601f10610b5b57610100808354040283529160200191610b86565b820191906000526020600020905b815481529060010190602001808311610b6957829003601f168201915b50505050508152602001600182018054610b9f906118ce565b80601f0160208091040260200160405190810160405280929190818152602001828054610bcb906118ce565b8015610c185780601f10610bed57610100808354040283529160200191610c18565b820191906000526020600020905b815481529060010190602001808311610bfb57829003601f168201915b50505050508152602001600282018054610c31906118ce565b80601f0160208091040260200160405190810160405280929190818152602001828054610c5d906118ce565b8015610caa5780601f10610c7f57610100808354040283529160200191610caa565b820191906000526020600020905b815481529060010190602001808311610c8d57829003601f168201915b50505050508152602001600382018054610cc3906118ce565b80601f0160208091040260200160405190810160405280929190818152602001828054610cef906118ce565b8015610d3c5780601f10610d1157610100808354040283529160200191610d3c565b820191906000526020600020905b815481529060010190602001808311610d1f57829003601f168201915b50505050508152602001600482018054610d55906118ce565b80601f0160208091040260200160405190810160405280929190818152602001828054610d81906118ce565b8015610dce5780601f10610da357610100808354040283529160200191610dce565b820191906000526020600020905b815481529060010190602001808311610db157829003601f168201915b50505050508152602001600582018054610de7906118ce565b80601f0160208091040260200160405190810160405280929190818152602001828054610e13906118ce565b8015610e605780601f10610e3557610100808354040283529160200191610e60565b820191906000526020600020905b815481529060010190602001808311610e4357829003601f168201915b505050505081526020016006820180546103e0906118ce565b6040805180820190915260608152600060208201526014604051806040016040529081600082018054610eab906118ce565b80601f0160208091040260200160405190810160405280929190818152602001828054610ed7906118ce565b8015610f245780601f10610ef957610100808354040283529160200191610f24565b820191906000526020600020905b815481529060010190602001808311610f0757829003601f168201915b5050509183525050600182015460209091019060ff166002811115610f4b57610f4b611557565b600281111561094757610947611557565b600054604051630935e01b60e21b81523360048201526001600160a01b03909116906324d7806c90602401602060405180830381865afa158015610fa4573d6000803e3d6000fd5b505050506040513d601f19601f82011682018060405250810190610fc8919061187c565b610fe45760405162461bcd60e51b81526004016102cf9061189e565b805181906003908190610ff79082611957565b506020820151600182019061100c9082611957565b50604082015160028201906110219082611957565b50606082015160038201906110369082611957565b506080820151600482019061104b9082611957565b5060a082015160058201906110609082611957565b5060c0820151600682019061083c9082611957565b634e487b7160e01b600052604160045260246000fd5b604080519081016001600160401b03811182821017156110ad576110ad611075565b60405290565b60405161018081016001600160401b03811182821017156110ad576110ad611075565b60405160e081016001600160401b03811182821017156110ad576110ad611075565b600082601f83011261110957600080fd5b81356001600160401b038082111561112357611123611075565b604051601f8301601f19908116603f0116810190828211818310171561114b5761114b611075565b8160405283815286602085880101111561116457600080fd5b836020870160208301376000602085830101528094505050505092915050565b80356003811061119357600080fd5b919050565b6000602082840312156111aa57600080fd5b81356001600160401b03808211156111c157600080fd5b90830190604082860312156111d557600080fd5b6111dd61108b565b8235828111156111ec57600080fd5b6111f8878286016110f8565b82525061120760208401611184565b602082015295945050505050565b6000815180845260005b8181101561123b5760208185018101518683018201520161121f565b506000602082860101526020601f19601f83011685010191505092915050565b6020815260008251604060208401526112776060840182611215565b90506020840151601f198483030160408501526112948282611215565b95945050505050565b80356001600160401b038116811461119357600080fd5b600061018082840312156112c757600080fd5b6112cf6110b3565b823581526020830135602082015260408301356040820152606083013560608201526080830135608082015260a083013560a082015261131160c0840161129d565b60c082015261132260e0840161129d565b60e082015261010061133581850161129d565b9082015261012083810135908201526101408084013590820152610160928301359281019290925250919050565b80356005811061119357600080fd5b60006020828403121561138457600080fd5b81356001600160401b038082111561139b57600080fd5b90830190606082860312156113af57600080fd5b6040516060810181811083821117156113ca576113ca611075565b6040528235828111156113dc57600080fd5b6113e8878286016110f8565b8252506113f76020840161129d565b602082015261140860408401611363565b604082015295945050505050565b600061018082019050825182526020830151602083015260408301516040830152606083015160608301526080830151608083015260a083015160a083015260c083015161146f60c08401826001600160401b03169052565b5060e083015161148a60e08401826001600160401b03169052565b50610100838101516001600160401b0316908301526101208084015190830152610140808401519083015261016092830151929091019190915290565b6000602082840312156114d957600080fd5b81356001600160401b03808211156114f057600080fd5b908301906040828603121561150457600080fd5b61150c61108b565b82358281111561151b57600080fd5b611527878286016110f8565b82525060208301358281111561153c57600080fd5b611548878286016110f8565b60208301525095945050505050565b634e487b7160e01b600052602160045260246000fd5b6005811061157d5761157d611557565b9052565b60208152600082516060602084015261159d6080840182611215565b90506001600160401b03602085015116604084015260408401516115c4606085018261156d565b509392505050565b6000602082840312156115de57600080fd5b6115e782611184565b9392505050565b602081016115fc828461156d565b92915050565b6003811061157d5761157d611557565b602081016115fc8284611602565b60006020828403121561163257600080fd5b6115e782611363565b602081526000825160e06020840152611658610100840182611215565b90506020840151601f19808584030160408601526116768383611215565b925060408601519150808584030160608601526116938383611215565b925060608601519150808584030160808601526116b08383611215565b925060808601519150808584030160a08601526116cd8383611215565b925060a08601519150808584030160c08601526116ea8383611215565b925060c08601519150808584030160e0860152506112948282611215565b6020815260008251604060208401526117246060840182611215565b905060208401516115c46040850182611602565b60006020828403121561174a57600080fd5b81356001600160401b038082111561176157600080fd5b9083019060e0828603121561177557600080fd5b61177d6110d6565b82358281111561178c57600080fd5b611798878286016110f8565b8252506020830135828111156117ad57600080fd5b6117b9878286016110f8565b6020830152506040830135828111156117d157600080fd5b6117dd878286016110f8565b6040830152506060830135828111156117f557600080fd5b611801878286016110f8565b60608301525060808301358281111561181957600080fd5b611825878286016110f8565b60808301525060a08301358281111561183d57600080fd5b611849878286016110f8565b60a08301525060c08301358281111561186157600080fd5b61186d878286016110f8565b60c08301525095945050505050565b60006020828403121561188e57600080fd5b815180151581146115e757600080fd5b602080825260169082015275283937b832b93a3c9d102737ba1030b71030b236b4b760511b604082015260600190565b600181811c908216806118e257607f821691505b60208210810361190257634e487b7160e01b600052602260045260246000fd5b50919050565b601f82111561195257600081815260208120601f850160051c8101602086101561192f5750805b601f850160051c820191505b8181101561194e5782815560010161193b565b5050505b505050565b81516001600160401b0381111561197057611970611075565b6119848161197e84546118ce565b84611908565b602080601f8311600181146119b957600084156119a15750858301515b600019600386901b1c1916600185901b17855561194e565b600085815260208120601f198616915b828110156119e8578886015182559484019460019091019084016119c9565b5085821015611a065787850151600019600388901b60f8161c191681555b5050505050600190811b0190555056fea26469706673582212201be59ba88fc21a9264d5d4f91877d1dfd809b6aebba427c44055b392f8a0469664736f6c63430008140033",
  "linkReferences": {},
  "deployedLinkReferences": {}
}